:100000000C942A000C943F000C943F000C943F0089
:100010000C943F000C943F000C943F000C943F0064
:100020000C943F000C943F000C943F000C943F0054
:100030000C943F000C943F000C943F000C943F0044
:100040000C943F000C943F000C943F000C943F0034
:100050000C943F0011241FBECFE5D8E0DEBFCDBF1A
:1000600010E0A0E6B0E0E6EDFAE002C005900D92E7
:10007000AE3AB107D9F70E9437020C9469050C9487
:1000800000008770806C87B9369A3499FECF349A15
:1000900089EF90E00197F1F700C0000084B195B1BD
:1000A00080E00895D19887B1806C87B986B1876A5E
:1000B00086B90895982F97708695869586956130B4
:1000C000E1F5813099F028F08230E9F0833041F198
:1000D00008954BB321E030E0B90102C0660F771FED
:1000E0009A95E2F7CB01842B8BBB089548B321E0AE
:1000F00030E0B90102C0660F771F9A95E2F7CB0195
:10010000842B88BB089545B321E030E0B90102C0DB
:10011000660F771F9A95E2F7CB01842B85BB089574
:1001200042B321E030E0B90102C0660F771F9A9513
:10013000E2F7CB01842B82BB08958130A1F028F037
:100140008230F9F0833059F108954BB321E030E06B
:10015000B90102C0660F771F9A95E2F7CB0180952F
:1001600084238BBB089548B321E030E0B90102C07D
:10017000660F771F9A95E2F7CB018095842388BBA1
:10018000089545B321E030E0B90102C0660F771F42
:100190009A95E2F7CB018095842385BB089542B3FD
:1001A00021E030E0B90102C0660F771F9A95E2F7AF
:1001B000CB018095842382BB0895E0E6F0E080E0E7
:1001C00041E050E0382F3770982F96959695969588
:1001D00020812130A1F5913089F028F09230C9F0CA
:1001E000933011F163C09AB3BA0102C0660F771F52
:1001F0003A95E2F79B01292B2ABB58C097B3BA0165
:1002000002C0660F771F3A95E2F79B01292B27BBA7
:100210004DC094B3BA0102C0660F771F3A95E2F75A
:100220009B01292B24BB42C091B3BA0102C0660FC7
:10023000771F3A95E2F79B01292B21BB37C09130FC
:1002400091F028F09230D9F0933029F12FC02AB3E1
:10025000BA0102C0660F771F3A95E2F7962F909584
:1002600092239ABB23C027B3BA0102C0660F771F3F
:100270003A95E2F7962F9095922397BB17C024B337
:10028000BA0102C0660F771F3A95E2F7962F909554
:10029000922394BB0BC021B3BA0102C0660F771F33
:1002A0003A95E2F7962F9095922391BB8F5F329605
:1002B000803209F087CF08959BB39F70242F207F51
:1002C000922B9BBB98B3677021E030E0F90102C02C
:1002D000EE0FFF1F6A95E2F7BF016095962398BB6A
:1002E00058B38770F90102C0EE0FFF1F8A95E2F73D
:1002F000CF015E2B58BBEFE1FEE43197F1F700C070
:10030000000028B3982F9095292328BBEFE3FFE145
:100310003197F1F700C000002BB32F70F0E14F9F31
:10032000A0011124422B4BBB28B3622368BB28B326
:10033000822B88BBEFE1FEE43197F1F700C00000AB
:1003400088B3982398BB8FE39FE10197F1F700C032
:10035000000008959BB39F70242F207F922B9BBB9E
:1003600098B3677021E030E0F90102C0EE0FFF1F83
:100370006A95E2F7BF019E2B98BB58B38770F901CD
:1003800002C0EE0FFF1F8A95E2F7CF015E2B58BB2C
:10039000EFE1FEE43197F1F700C0000028B3982F99
:1003A0009095292328BBEFE3FFE13197F1F700C0D7
:1003B00000002BB32F70F0E14F9FA0011124422BBE
:1003C0004BBB28B3622B68BB28B3822B88BBEFE101
:1003D000FEE43197F1F700C0000088B3982398BB82
:1003E0008FE39FE10197F1F700C000000895CF93DC
:1003F000DF93FC014081442349F0EC01219669E040
:100400008BE00E94AA0149914111F9CFDF91CF9170
:1004100008950E94DD0060E08AE00E945A002FEFFC
:1004200089EF90E0215080409040E1F700C000004B
:1004300043E369E08BE00E945C0142E369E08BE00A
:100440000E945C0148E269E08BE00E945C014CE0A4
:1004500069E08BE00E945C0146E069E08BE00E946D
:100460005C0141E069E08BE00E945C010895CF935C
:10047000DF93CDB7DEB72A970FB6F894DEBF0FBE75
:10048000CDBF0E9409020E9452006894BB24B3F8B9
:100490006E0123E0C20ED11C0F2EF0EAEF2EF0E029
:1004A000FF2EF02D8E010F5F1F4F81E00E94410053
:1004B0001A821982F6012B2D11922A95E9F79F9342
:1004C0008F93FF92EF921F930F930E947F0240E859
:1004D00069E08BE00E945C0183EA90E00E94F701F2
:1004E00040EC69E08BE00E945C01C8010E94F701CA
:1004F0000F900F900F900F900F900F90D6CFAEE00F
:10050000B0E0E5E8F2E00C9440050D891E8986E034
:100510008C831A8309838FEF9FE79E838D83AE01BF
:10052000475E5F4F6F89788DCE0101960E94A102D0
:10053000EF81F885E00FF11F10822E96E4E00C9415
:100540005C05ABE0B0E0E7EAF2E00C9432056C0148
:100550007B018A01FC0117821682838181FFCCC155
:10056000CE0101963C01F6019381F70193FD85913F
:1005700093FF81917F01882309F4BAC1853239F450
:1005800093FD859193FF81917F01853229F4B60116
:1005900090E00E949804E7CF912C212C312CFFE1B0
:1005A000F315D8F08B3279F038F4803279F0833259
:1005B000A1F4232D20611DC08D3261F0803369F4D8
:1005C000232D216016C0832D8260382EE32DE46038
:1005D0003E2E2AC0F32DF8601DC037FC2DC020ED43
:1005E000280F2A3040F08E32B9F436FC81C1232D19
:1005F0002064322E19C036FE06C08AE0989E200D77
:100600001124922E11C0EAE02E9E200D1124222EDC
:10061000F32DF0623F2E08C08C3621F4832D8068C4
:10062000382E02C0883641F4F70193FD859193FF7F
:1006300081917F018111B3CF982F9F7D9554933085
:1006400028F40C5F1F4F9FE399830DC0833631F070
:10065000833771F0833509F059C021C0F8018081DA
:1006600089830E5F1F4F88248394912C530113C0FC
:100670002801F2E04F0E511CF801A080B18036FE37
:1006800003C0692D70E002C06FEF7FEFC5010E94CB
:100690008D044C018201F32DFF773F2E16C02801F7
:1006A00022E0420E511CF801A080B18036FE03C04A
:1006B000692D70E002C06FEF7FEFC5010E948204D8
:1006C0004C01F32DF0683F2E820133FC1BC0822DBC
:1006D00090E088169906B0F4B60180E290E00E949E
:1006E00098042A94F4CFF50137FC859137FE819167
:1006F0005F01B60190E00E94980421102A9421E045
:10070000821A91088114910471F7E8C0843611F0BF
:10071000893641F5F80137FE07C060817181828119
:1007200093810C5F1F4F08C060817181072E000C00
:10073000880B990B0E5F1F4FF32DFF763F2E97FF0F
:1007400009C090958095709561957F4F8F4F9F4F11
:10075000F0683F2E2AE030E0A3010E94D404882EE6
:10076000861845C0853731F4232D2F7EB22E2AE01E
:1007700030E025C0932D997FB92E8F36C1F018F443
:10078000883579F0B5C0803719F0883721F0B0C0CE
:10079000E92FE061BE2EB4FE0DC0FB2DF460BF2E2C
:1007A00009C034FE0AC0292F2660B22E06C028E0F8
:1007B00030E005C020E130E002C020E132E0F80185
:1007C000B7FE07C060817181828193810C5F1F4FEA
:1007D00006C06081718180E090E00E5F1F4FA30131
:1007E0000E94D404882E8618FB2DFF773F2E36FEFC
:1007F0000DC0232D2E7FA22E891458F434FE0BC079
:1008000032FC09C0832D8E7EA82E05C0B82CA32CE7
:1008100003C0B82C01C0B92CA4FE0FC0FE01E80D26
:10082000F11D8081803321F49A2D997EA92E09C073
:10083000A2FE06C0B394B39404C08A2D867809F052
:10084000B394A3FC11C0A0FE06C0B21488F4280C17
:10085000922C9B180EC0B21460F4B60180E290E0B6
:100860000E949804B394F7CFB21418F42B1802C066
:10087000982C212CA4FE10C0B60180E390E00E94C9
:100880009804A2FE17C0A1FC03C088E790E002C054
:1008900088E590E0B6010CC08A2D867859F0A1FE5B
:1008A00002C08BE201C080E2A7FC8DE2B60190E0BD
:1008B0000E949804891438F4B60180E390E00E9405
:1008C00098049A94F7CF8A94F301E80DF11D808182
:1008D000B60190E00E9498048110F5CF222009F41F
:1008E00042CEB60180E290E00E9498042A94F6CFAE
:1008F000F6018681978102C08FEF9FEF2B96E2E190
:100900000C944E05FC010590615070400110D8F721
:10091000809590958E0F9F1F0895FC016150704047
:1009200001900110D8F7809590958E0F9F1F089524
:100930000F931F93CF93DF93FB01238121FD03C00E
:100940008FEF9FEF2CC022FF16C046815781248174
:1009500035814217530744F4A081B1819D012F5F77
:100960003F4F318320838C93268137812F5F3F4F08
:100970003783268314C08B01EC01FB010084F185D1
:10098000E02D0995892BE1F6D80116968D919C9161
:100990001797019617969C938E931697CE01DF9129
:1009A000CF911F910F910895FA01AA27283051F194
:1009B000203181F1E8946F936E7F6E5F7F4F8F4F90
:1009C0009F4FAF4FB1E03ED0B4E03CD0670F781FEF
:1009D000891F9A1FA11D680F791F8A1F911DA11DD4
:1009E0006A0F711D811D911DA11D20D009F468940D
:1009F0003F912AE0269F11243019305D3193DEF6B5
:100A0000CF010895462F4770405D4193B3E00FD06A
:100A1000C9F7F6CF462F4F70405D4A3318F0495D55
:100A200031FD4052419302D0A9F7EACFB4E0A69538
:100A30009795879577956795BA95C9F7009761055A
:100A4000710508959B01AC010A2E069457954795B0
:100A500037952795BA95C9F7620F731F841F951FA5
:100A6000A01D08952F923F924F925F926F927F92B6
:100A70008F929F92AF92BF92CF92DF92EF92FF92AE
:100A80000F931F93CF93DF93CDB7DEB7CA1BDB0B5A
:100A90000FB6F894DEBF0FBECDBF09942A883988FF
:100AA00048885F846E847D848C849B84AA84B98406
:100AB000C884DF80EE80FD800C811B81AA81B98112
:100AC000CE0FD11D0FB6F894DEBF0FBECDBFED0126
:060AD0000895F894FFCF29
:100AD600000000000000000001000100010001000C
:100AE60000000100010001000000010001000100FA
:100AF60001000100010001000100010001000100E8
:100B060001000100010001000100010001000100D7
:0E0B160025640074686520706F74203D000037
:00000001FF
