S01200004C617965725F417263682E7372656338
S11300000C942A000C943F000C943F000C943F0085
S11300100C943F000C943F000C943F000C943F0060
S11300200C943F000C943F000C943F000C943F0050
S11300300C943F000C943F000C943F000C943F0040
S11300400C943F000C943F000C943F000C943F0030
S11300500C943F0011241FBECFE5D8E0DEBFCDBF16
S113006010E0A0E6B0E0E0E6F4E002C005900D92F6
S1130070AC3AB107D9F70E941E020C942E020C94DC
S11300800000982F97708695869586956130E1F5E6
S1130090813099F028F08230E9F0833041F10895FD
S11300A04BB321E030E0B90102C0660F771F9A9587
S11300B0E2F7CB01842B8BBB089548B321E030E0F9
S11300C0B90102C0660F771F9A95E2F7CB01842B22
S11300D088BB089545B321E030E0B90102C0660F42
S11300E0771F9A95E2F7CB01842B85BB089542B321
S11300F021E030E0B90102C0660F771F9A95E2F75C
S1130100CB01842B82BB08958130A1F028F082308A
S1130110F9F0833059F108954BB321E030E0B9018F
S113012002C0660F771F9A95E2F7CB01809584236E
S11301308BBB089548B321E030E0B90102C0660FDB
S1130140771F9A95E2F7CB018095842388BB0895A5
S113015045B321E030E0B90102C0660F771F9A95DC
S1130160E2F7CB018095842385BB089542B321E057
S113017030E0B90102C0660F771F9A95E2F7CB0110
S11301808095842382BB0895E0E6F0E080E041E0BE
S113019050E0382F3770982F969596959695208134
S11301A02130A1F5913089F028F09230C9F09330D4
S11301B011F163C09AB3BA0102C0660F771F3A9572
S11301C0E2F79B01292B2ABB58C097B3BA0102C09E
S11301D0660F771F3A95E2F79B01292B27BB4DC089
S11301E094B3BA0102C0660F771F3A95E2F79B01F8
S11301F0292B24BB42C091B3BA0102C0660F771FFA
S11302003A95E2F79B01292B21BB37C0913091F03D
S113021028F09230D9F0933029F12FC02AB3BA01D3
S113022002C0660F771F3A95E2F7962F90959223B6
S11302309ABB23C027B3BA0102C0660F771F3A9551
S1130240E2F7962F9095922397BB17C024B3BA0177
S113025002C0660F771F3A95E2F7962F9095922386
S113026094BB0BC021B3BA0102C0660F771F3A9545
S1130270E2F7962F9095922391BB8F5F329680324E
S113028009F087CF08959BB39F70242F207F922B72
S11302909BBB98B3677021E030E0F90102C0EE0F18
S11302A0FF1F6A95E2F7BF016095962398BB58B388
S11302B08770F90102C0EE0FFF1F8A95E2F7CF01A4
S11302C05E2B58BBEFE1FEE43197F1F700C000006C
S11302D028B3982F9095292328BBEFE3FFE13197AA
S11302E0F1F700C000002BB32F70F0E14F9FA00185
S11302F01124422B4BBB28B3622368BB28B3822B47
S113030088BBEFE1FEE43197F1F700C0000088B349
S1130310982398BB8FE39FE10197F1F700C0000099
S113032008959BB39F70242F207F922B9BBB98B37F
S1130330677021E030E0F90102C0EE0FFF1F6A95FB
S1130340E2F7BF019E2B98BB58B38770F90102C036
S1130350EE0FFF1F8A95E2F7CF015E2B58BBEFE14A
S1130360FEE43197F1F700C0000028B3982F909570
S1130370292328BBEFE3FFE13197F1F700C0000028
S11303802BB32F70F0E14F9FA0011124422B4BBBE4
S113039028B3622B68BB28B3822B88BBEFE1FEE451
S11303A03197F1F700C0000088B3982398BB8FE31E
S11303B09FE10197F1F700C000000895CF93DF9308
S11303C0FC014081442349F0EC01219669E08BE073
S11303D00E94910149914111F9CFDF91CF91089584
S11303E00E94C40060E08AE00E9441002FEF89EF80
S11303F090E0215080409040E1F700C0000043E3CA
S113040069E08BE00E94430142E369E08BE00E94D3
S1130410430148E269E08BE00E9443014CE069E05B
S11304208BE00E94430146E069E08BE00E944301B7
S113043041E069E08BE00E94430108950E94F001CD
S113044080EA90E00E94DE0140EC69E08BE00E94CB
S1130450430185EA90E00E94DE01F2CFF894FFCFD9
S11304600100010001000100010001000100010080
S11304700000010001000100000001000100010072
S11304800100010001000100010001000100010060
S11304900100010001000100010001000100010050
S10F04A0686F6C610061686D65640000A9
S9030000FC
